:100000000C947E060C949D060C949D060C94975BB4
:100010000C949D060C949D060C949D060C949D06D4
:100020000C949D060C949D060C949D060C949D06C4
:100030000C94B85B0C949D060C949D060C949D0644
:100040000C949D060C949D060C949D060C949D06A4
:100050000C949D060C949D060C949D060C949D0694
:100060000C949D060C949D060C949D060C949D0684
:100070000C949D060C949D060C949D060C949D0674
:100080000C949D060C949D060C949D06B2674B66DD
:100090009763976397639763976397639763976390
:1000A000346FE26DFC6BF86B9763976397639763AC
:1000B00097639763E26BC06BB46BA86B97639763AE
:1000C00097639763976397638B6A8D699763976369
:1000D0009763976397639763976397638A69626986
:1000E0005F695C6900000000000000000000000083
:1000F000000000000000000000000000000003F00D
:100100000C0C100211322231220122311132100264
:100110000C0C03F0000003F00FFC1FFE1ECE3DCFC1
:100120003DFF3DCF1ECE1FFE0FFC03F00000000080
:1001300000F001F803F807F00FE007F003F801F80A
:1001400000F0000000000000008001C003E007F0A4
:100150000FF807F003E001C00080000000000380FA
:1001600007C007C013B81BFC1FFC1BFC13B807C05B
:1001700007C0038000000000038007C017E01BF0E9
:100180001FFC1BF017E007C0038000000000000008
:10019000000000000000000000000000000000005F
:1001A000000000000000000000000000000000004F
:1001B000000000000000000000000000000000003F
:1001C000000000000000000000000000000000002F
:1001D000000000000000000000000000000000001F
:1001E000000000000000000000000000000003808C
:1001F00007C00C60082008200C6007C803A800187E
:1002000000780000000000000000007008F8098C71
:100210003F043F04098C08F8007000000000000053
:1002200000000000000000000000000000000000CE
:1002300000000000000006000F000F0007FF003361
:10024000306678CC79983FF0000000000000008014
:1002500009C807F006300C183C1E0C18063007F0D1
:1002600009C800800000000000001FFC0FF807F024
:1002700003E001C00080000000000000000000005A
:100280000000008001C003E007F00FF81FFC000031
:100290000000000000000000000004100C181C1CEE
:1002A0003FFE1C1C0C1804100000000000000000A1
:1002B000000037FE37FE0000000037FE37FE00006A
:1002C0000000000000000038007C00C600823FFEF5
:1002D0003FFE00023FFE3FFE000200000000000063
:1002E00008DC19FE11221122112211221FE60EC470
:1002F0000000000000000000000038003800380056
:1003000038003800380038003800000000000000D5
:10031000000044084C0C5C0E7FFF5C0E4C0C440843
:100320000000000000000000000000100018001C89
:100330003FFE001C0018001000000000000000003C
:10034000000004000C001C003FFE1C000C00040018
:10035000000000000000000000800080008000809D
:10036000008007F003E001C00080000000000000F2
:10037000008001C003E007F0008000800080008062
:100380000080000000003F0020002000200020002E
:10039000200020002000200020000000000000803D
:1003A00001C003E007F000800080008007F003E058
:1003B00001C000800000040006000700078007C09D
:1003C00007E007C0078007000600040000000020C7
:1003D000006000E001E003E007E003E001E000E08E
:1003E000006000200000000000000000000000008D
:1003F00000000000000000000000000000000000FD
:1004000000000000007C33FF33FF007C0000000090
:1004100000000000000000000000003C003C000064
:100420000000003C003C0000000000000000020052
:100430001E101F9003F0027E1E1E1F9003F0027E0E
:10044000001E00100000000004780CFC0CCC3FFFE4
:100450003FFF0CCC0FCC07880000000000003000EC
:1004600038381C380E380700038001C038E0387077
:100470003838001C000000001F003FB831FC21C6C6
:1004800037E21E3E1C1C3600220000000000000067
:10049000000000000027003F001F000000000000D7
:1004A0000000000000000000000003F00FFC1FFE31
:1004B00038072001200100000000000000000000BB
:1004C00000002001200138071FFE0FFC03F0000090
:1004D00000000000000000000C980EB803E00FF8C8
:1004E0000FF803E00EB80C980000000000000000B8
:1004F0000180018001800FF00FF0018001800180F8
:10050000000000000000000000000000B800F8003B
:100510007800000000000000000000000000000063
:1005200001800180018001800180018001800180C3
:10053000000000000000000000000000380038004B
:10054000380000000000000000000000000018005B
:100550001C000E000700038001C000E0007000389E
:10056000001C000E000007F81FFE1E063303318337
:1005700030C330633033181E1FFE07F80000000040
:100580000000300C300C300E3FFF3FFF30003000D9
:10059000300000000000301C381E3C073E033703CB
:1005A000338331C330E33077303E301C00000C0C15
:1005B0001C0E380730C330C330C330C330C339E7F3
:1005C0001F7E0E3C000003C003E003700338031CD1
:1005D000030E03073FFF3FFF0300030000000C3F33
:1005E0001C7F38633063306330633063306338E3DB
:1005F0001FC30F8300000FC01FF039F830DC30CE6E
:1006000030C730C330C339C31F800F000000000360
:100610000003000330033C030F0303C300F3003F58
:10062000000F000300000F001FBC39FE30E730C38D
:1006300030C330C330E739FE1FBC0F000000003C60
:10064000007E30E730C330C338C31CC30EC307E796
:1006500003FE00FC00000000000000001C701C7085
:100660001C700000000000000000000000000000FE
:10067000000000009C70FC707C7000000000000016
:10068000000000000000000000C001E003F0073897
:100690000E1C1C0E38073003000000000000000094
:1006A000066006600660066006600660066006601A
:1006B0000660000000000000300338071C0E0E1C0E
:1006C000073803F001E000C0000000000000001C3B
:1006D000001E00070003378337C300E30077003EA6
:1006E000001C000000000FF81FFE180733F337FB53
:1006F000361B37FB37FB360703FE01F800003800D6
:100700003F0007E006FC061F061F06FC07E03F004F
:100710003800000000003FFF3FFF30C330C330C34C
:1007200030C330E739FE1FBC0F000000000003F0AB
:100730000FFC1C0E380730033003300338071C0E43
:100740000C0C000000003FFF3FFF3003300330037C
:10075000300338071C0E0FFC03F0000000003FFFC1
:100760003FFF30C330C330C330C330C330C3300366
:100770003003000000003FFF3FFF00C300C300C381
:1007800000C300C300C3000300030000000003F027
:100790000FFC1C0E3807300330C330C330C33FC7D3
:1007A0003FC6000000003FFF3FFF00C000C000C088
:1007B00000C000C000C03FFF3FFF0000000000007D
:1007C0000000300330033FFF3FFF300330030000E1
:1007D0000000000000000E001E0038003000300055
:1007E0003000300038001FFF07FF000000003FFF0F
:1007F0003FFF00C001E003F007380E1C1C0E380755
:100800003003000000003FFF3FFF300030003000A9
:1008100030003000300030003000000000003FFFAA
:100820003FFF001E007801E001E00078001E3FFF5E
:100830003FFF000000003FFF3FFF000E003800F0C8
:1008400003C007001C003FFF3FFF0000000003F053
:100850000FFC1C0E38073003300338071C0E0FFC4A
:1008600003F0000000003FFF3FFF0183018301838D
:100870000183018301C700FE007C0000000003F03B
:100880000FFC1C0E3807300336033E071C0E3FFCDE
:1008900033F0000000003FFF3FFF0183018303832B
:1008A00007830F831DC738FE307C000000000C3C1E
:1008B0001C7E38E730C330C330C330C339C71F8E06
:1008C0000F0C0000000000000003000300033FFFC6
:1008D0003FFF00030003000300000000000007FFCB
:1008E0001FFF3800300030003000300038001FFF9C
:1008F00007FF000000000007003F01F80FC03E00A6
:100900003E000FC001F8003F0007000000003FFF5D
:100910003FFF1C0006000380038006001C003FFF11
:100920003FFF0000000030033C0F0E1C033001E0CD
:1009300001E003300E1C3C0F3003000000000003F8
:10094000000F003C00F03FC03FC000F0003C000F33
:1009500000030000000030033C033E03330331C3B7
:1009600030E33033301F300F300300000000000050
:1009700000003FFF3FFF300330033003300300002F
:10098000000000000000000E001C0038007000E0B5
:1009900001C0038007000E001C00180000000000CA
:1009A000000030033003300330033FFF3FFF0000FF
:1009B000000000000000006000700038001C000E05
:1009C0000007000E001C0038007000600000C0002E
:1009D000C000C000C000C000C000C000C000C00017
:1009E000C000C00000000000000000000000003E49
:1009F000007E004E000000000000000000001C000F
:100A00003E403360336033603360336033603FE0D7
:100A10003FC0000000003FFF3FFF30C0306030604B
:100A20003060306038E01FC00F80000000000F8091
:100A30001FC038E03060306030603060306018C017
:100A40000880000000000F801FC038E03060306078
:100A5000306030E030C03FFF3FFF000000000F80FB
:100A60001FC03BE03360336033603360336013C0DA
:100A700001800000000000C000C03FFC3FFE00C736
:100A800000C300C30003000000000000000003805A
:100A9000C7C0CEE0CC60CC60CC60CC60E6607FE0CC
:100AA0003FE0000000003FFF3FFF00C0006000602B
:100AB000006000E03FC03F80000000000000000038
:100AC0000000300030603FEC3FEC300030000000B0
:100AD000000000000000000000006000E000C00016
:100AE000C060FFEC7FEC0000000000000000000090
:100AF0003FFF3FFF030007800FC01CE0386030005D
:100B000000000000000000000000300030033FFF44
:100B10003FFF3000300000000000000000003FE018
:100B20003FC000E000E03FC03FC000E000E03FC049
:100B30003F800000000000003FE03FE000600060F8
:100B40000060006000E03FC03F80000000000F80B8
:100B50001FC038E0306030603060306038E01FC067
:100B60000F8000000000FFE0FFE00C6018601860DC
:100B7000186018601CE00FC00780000000000780AC
:100B80000FC01CE018601860186018600C60FFE06F
:100B9000FFE00000000000003FE03FE000C0006018
:100BA00000600060006000E000C00000000011C0B4
:100BB00033E033603360336033603F601E400000D9
:100BC000000000000000006000601FFE3FFE30607B
:100BD00030603060300000000000000000000FE0D6
:100BE0001FE03800300030003000300018003FE0D7
:100BF0003FE000000000006001E007801E003800B8
:100C000038001E00078001E000600000000007E0DF
:100C10001FE038001C000FE00FE01C0038001FE050
:100C200007E000000000306038E01DC00F800700C2
:100C30000F801DC038E030600000000000000000A0
:100C4000006081E0E7807E001E00078001E0006018
:100C5000000000000000306038603C6036603360A7
:100C600031E030E030603020000000000000000083
:100C7000008001C01FFC3F7E7007600360036003BB
:100C800000000000000000000000000000003FBF66
:100C90003FBF000000000000000000000000000056
:100CA00060036003600370073F7E1FFC01C000808B
:100CB00000000000000000100018000C0004000CF0
:100CC000001800100018000C0004000000000F00C5
:100CD0000F800CC00C600C300C300C600CC00F800E
:100CE0000F000000000000000000007800FC00CCB5
:100CF00000CC00FC007800000000000011241FBEA2
:100D0000CFEFD0E1DEBFCDBF15E0A0E0B1E0E4E37E
:100D1000FBEE00E00BBF02C007900D92A637B107B3
:100D2000D9F725E0A6E7B5E001C01D92AC3BB207BC
:100D3000E1F70E94ED5B0C9498750C9400002F92E3
:100D40003F924F925F926F927F928F929F92AF925B
:100D5000BF92CF92DF92EF92FF920F931F93CF93A8
:100D6000DF9300D000D0CDB7DEB76B017C015A8392
:100D7000498389018CE0D9011D928A95E9F7452BB9
:100D800009F022C1C701B60120E03AEC4AE95BE371
:100D90000E940274E22F60E07AEC8AE99BE30E94F1
:100DA000F273C61AD70AE80AF90AE05DD801EC9393
:100DB000C701B60120E031EE45EF55E00E94027414
:100DC000E22F60E071EE85EF95E00E94F273C61AA3
:100DD000D70AE80AF90AE05DD8011196EC93C70139
:100DE000B60120E836E948E950E00E940274E22F9B
:100DF00060E876E988E990E00E94F273C61AD70AA3
:100E0000E80AF90AE05DD8011296EC93C701B60131
:100E100020E432E44FE050E00E940274E22F60E4EC
:100E200072E48FE090E00E94F273C61AD70AE80AD3
:100E3000F90AE05DD8011396EC93C701B60120EAE8
:100E400036E841E050E00E940274E22FA22FB32F57
:100E500020EA36E841E050E00E943F74C61AD70A03
:100E6000E80AF90AE05DD8011496EC93C701B601CF
:100E700020E137E240E050E00E940274422FA22FAE
:100E8000B32F20E137E20E942D74C61AD70AE80A70
:100E9000F90A405DF8014583C701B60128EE33E049
:100EA00040E050E00E940274422FA22FB32F28EEA0
:100EB00033E00E942D74C61AD70AE80AF90A405D89
:100EC000D80116964C93C701B60124E630E040E005
:100ED00050E00E940274422FA22FB32F24E630E08C
:100EE0000E942D74C61AD70AE80AF90A405DF80173
:100EF0004783C701B6012AE030E040E050E00E949D
:100F00000274C901205DD80118962C93092E000C9B
:100F1000AA0BBB0B880F991FAA1FBB1FAC01BD01F9
:100F2000440F551F661F771F440F551F661F771FFD
:100F3000840F951FA61FB71FA7019601281B390B09
:100F40004A0B5B0BDA01C901805DD80119968C93BD
:100F5000D8019C91903309F087C0F80120E030E07F
:100F600080E22F5F3F4F819390819033D1F399239B
:100F700009F47DC0D8012F5F3F4FF801E20FF31F46
:100F800020E030E02F5F3F4F9D9391919111FACF78
:100F9000C901F801E20FF31F10820F900F900F901C
:100FA0000F90DF91CF911F910F91FF90EF90DF9005
:100FB000CF90BF90AF909F908F907F906F905F90F9
:100FC0004F903F902F90089589E090E0212C312C94
:100FD000812C2AEC922E2AE9A22E2BE3B22E3AE0A3
:100FE000432E512C612C712C9C838B8308C0EB8188
:100FF000FC813197FC83EB83319609F4A9CFC701BB
:10100000B601A50194010E940274E22FA22FB32F12
:10101000A50194010E943F74C61AD70AE80AF90A8A
:10102000D10119962B813C81A21BB30BA00FB11FDC
:10103000E05DEC93C501B401A30192010E9402742A
:1010400049015A014B815C8189819A81481759076E
:1010500071F69FEF291A390AF101E41BF50BE00F35
:10106000F11FAEE2A187C3CF20E030E080CFF801CE
:1010700080E090E091CF20E530E0FBE24CE2EAE254
:1010800050E6DC98DE9AF5BBDD98DD9ADC9ADE9AB4
:1010900035BBDD98DD9ADC9ADE9A25BBDD98DD9ABA
:1010A000DC98DE9A45BBDD98DD9ADC98DE9AE5BBDC
:1010B000DD98DD9ADC9ADE9A15BADD98DD9ADC9A25
:1010C000DE9A55BBDD98DD9ADC98DE9A45BBDD984B
:1010D000DD9A8CE290E0DC9ADE9A75BBDD98DD9AB1
:1010E000DC9ADE9A65BBDD98DD9A0197A1F72F5F48
:1010F0003F4F203481E0380721F60895892B31F0E5
:10110000DC9ADE9A65BBDD98DD9A0895DC98DE9A5C
:1011100065BBDD98DD9A0895DC98DE9A8FEC85BB7F
:10112000DD98DD9ADC9ADE9A15BADD98DD9ADC9AB4
:10113000DE9A31EC35BBDD98DD9ADC9ADE9A80E3ED
:1011400085BBDD98DD9ADC98DE9A8DEE85BBDD9857
:10115000DD9ADC9ADE9A84E685BBDD98DD9ADC9A1E
:10116000DE9A43E045BBDD98DD9ADC9ADE9A82E1A7
:1011700085BBDD98DD9ADC9ADE9A81E885BBDD9837
:10118000DD9ADC98DE9A8BEC85BBDD98DD9ADC9AE3
:10119000DE9A89E385BBDD98DD9ADC9ADE9A8CE2E3
:1011A00085BBDD98DD9ADC9ADE9A15BADD98DD9A6A
:1011B000DC9ADE9A84E385BBDD98DD9ADC9ADE9AC0
:1011C00082E085BBDD98DD9ADC98DE9A8AEE85BBED
:1011D000DD98DD9ADC9ADE9A15BADD98DD9ADC9A04
:1011E000DE9A15BADD98DD9ADC98DE9A88EE85BB2A
:1011F000DD98DD9ADC9ADE9A85E885BBDD98DD9A7C
:10120000DC9ADE9A60E165BBDD98DD9ADC9ADE9AB5
:1012100089E785BBDD98DD9ADC98DE9A80EC85BB9A
:10122000DD98DD9ADC9ADE9A83E285BBDD98DD9A53
:10123000DC98DE9A35BBDD98DD9ADC9ADE9A65BBD8
:10124000DD98DD9ADC98DE9A85EC85BBDD98DD9A29
:10125000DC9ADE9A8EE385BBDD98DD9ADC9ADE9A15
:1012600088E285BBDD98DD9ADC98DE9A87EC85BB49
:10127000DD98DD9ADC9ADE9A86E885BBDD98DD9AFA
:10128000DC98DE9A86E385BBDD98DD9ADC9ADE9AEF
:1012900088E885BBDD98DD9ADC98DE9A8AE385BB19
:1012A000DD98DD9ADC9ADE9A85E585BBDD98DD9ACE
:1012B000DC98DE9A81EB85BBDD98DD9ADC9ADE9ABC
:1012C00015BADD98DD9ADC9ADE9A88E185BBDD9857
:1012D000DD9ADC98DE9A86EB85BBDD98DD9ADC9A98
:1012E000DE9A28E025BBDD98DD9ADC9ADE9A82E85A
:1012F00085BBDD98DD9ADC9ADE9A87E285BBDD98B6
:10130000DD9ADC98DE9A82EF85BBDD98DD9ADC9A67
:10131000DE9A15BADD98DD9ADC98DE9A86E285BB06
:10132000DD98DD9ADC9ADE9A81E085BBDD98DD9A56
:10133000DC98DE9A80EE85BBDD98DD9ADC9ADE9A39
:101340008FE085BBDD98DD9ADC9ADE9A91E395BB50
:10135000DD98DD9ADC9ADE9A5BE255BBDD98DD9A7A
:10136000DC9ADE9A7CE075BBDD98DD9ADC9ADE9A29
:101370005EE055BBDD98DD9ADC9ADE9A25BBDD98F0
:10138000DD9ADC9ADE9AEEE4E5BBDD98DD9ADC9A24
:10139000DE9AE1EFE5BBDD98DD9ADC9ADE9AE7E3C1
:1013A000E5BBDD98DD9ADC9ADE9AE7E0E5BBDD98E7
:1013B000DD9ADC9ADE9A65BBDD98DD9ADC9ADE9ACE
:1013C00045BBDD98DD9ADC9ADE9A55BBDD98DD9A47
:1013D000DC9ADE9A69E065BBDD98DD9ADC9ADE9ADC
:1013E00015BADD98DD9ADC98DE9A61EE65BBDD9872
:1013F000DD9ADC9ADE9A15BADD98DD9ADC9ADE9ADF
:1014000055BBDD98DD9ADC9ADE9A54E155BBDD9838
:10141000DD9ADC9ADE9A45BBDD98DD9ADC9ADE9A8D
:1014200041E145BBDD98DD9ADC9ADE9AE5BBDD98AB
:10143000DD9ADC9ADE9A95BBDD98DD9ADC9ADE9A1D
:1014400035BBDD98DD9ADC9ADE9A38E435BBDD9851
:10145000DD9ADC9ADE9A25BBDD98DD9ADC9ADE9A6D
:1014600085BBDD98DD9ADC9ADE9A75BBDD98DD9A46
:10147000DC9ADE9A95BBDD98DD9ADC9ADE9A96E3DB
:1014800095BBDD98DD9ADC9ADE9A85BBDD98DD9A06
:10149000DC98DE9A45BBDD98DD9A2FEF8BED95E069
:1014A000215080409040E1F700C00000DC98DE9AB7
:1014B0008CE285BBDD98DD9ADC98DE9A99E295BBDB
:1014C000DD98DD9ADC98DE9A85BBDD98DD9A08957B
:1014D000DC98DE9A2BE225BBDD98DD9ADC9ADE9A59
:1014E00095BBDD98DD9ADC9ADE9A85BBDD98DD9AA6
:1014F000DC98DE9A8CE285BBDD98DD9ADC98DE9A7A
:101500009AE295BBDD98DD9ADC9ADE9A75BBDD9890
:10151000DD9ADC9ADE9A65BBDD98DD9ADC98DE9A6E
:1015200085BBDD98DD9A0895EF92FF920F931F938C
:10153000CF93DF937C01C0E0D0E004E810E1B70175
:10154000CE010E94680ADC9ADE9A05BBDD98DD9A1E
:10155000DC9ADE9A15BBDD98DD9ADC9ADE9A05BB33
:10156000DD98DD9ADC9ADE9A15BBDD98DD9AB7012D
:10157000CE010E94680ADC9ADE9A05BBDD98DD9AEE
:10158000DC9ADE9A15BBDD98DD9ADC9ADE9A05BB03
:10159000DD98DD9ADC9ADE9A15BBDD98DD9A2196FE
:1015A000C03481E0D80759F6DF91CF911F910F9198
:1015B000FF90EF9008956F927F928F929F92AF92DB
:1015C000BF92CF92DF92EF92FF920F931F93CF9330
:1015D000DF9300D0CDB7DEB77C016B01CA01880F65
:1015E000991F840F951F880F991F880F991F880FC7
:1015F000991FAC014C515F4F5A0147015CE0850EC9
:10160000911CF50131968491F5019491492F50E098
:10161000542F44273A01680E711CB601C701298373
:101620003A830E94680A40E150E029813A810BC068
:1016300015BBDD98DD9ADC9ADE9A05BBDD98DD9A54
:1016400041505109B0F0D301042E02C0B595A795C1
:101650000A94E2F7DC9ADE9AA0FFEACF35BBDD9868
:10166000DD9ADC9ADE9A25BBDD98DD9A415051095E
:1016700050F7EFEFEE1AFE0AF2E0AF0EB11CE814DD
:10168000F90409F0BECF0F900F90DF91CF911F9119
:101690000F91FF90EF90DF90CF90BF90AF909F9011
:1016A0008F907F906F9008958F929F92AF92BF928C
:1016B000CF92DF92EF92FF920F931F93CF93DF931E
:1016C000EC016B0159014801FA018081882391F0F6
:1016D0007A01FFEFEF1AFF0A482F50E084019501CD
:1016E000B601CE010E94DB0A2C96F70181917F01A1
:1016F0008111F2CFDF91CF911F910F91FF90EF9069
:10170000DF90CF90BF90AF909F908F9008950F93F0
:101710001F938C0128E136EC40E755E060E070E073
:1017200080E090E00E94540B1F910F910895AF92BA
:10173000BF92CF92DF92EF92FF920F931F93CF93BE
:10174000DF93CDB7DEB7C85CD1090FB6F894DEBF22
:101750000FBECDBFFE01319628ECDF011D922A9508
:10176000E9F722E732E03A8329832AE732E03C8333
:101770002B8322E832E03E832D832AE832E038874B
:101780002F8322E932E03A8729872AE932E03C8731
:101790002B8722EA32E03E8B2D8B2AEA32E0388F0B
:1017A0002F8B2DE635E03A8F298F3C8F2B8F3E8F84
:1017B0002D8F38A32F8F42EB52E05AA749A74AEB4F
:1017C00052E05CA74BA742EC52E05EA74DA74AEC63
:1017D00052E058AB4FA73AAB29AB3CAB2BAB42ED39
:1017E00052E05EAF4DAF4AED52E021965FAF4EAF93
:1017F0002197A2EEB2E02396BFAFAEAF2397AAEE39
:10180000B2E02596BFAFAEAF259727963FAF2EAF7C
:10181000279729963FAF2EAF2997A2EFB2E06396A4
:10182000BFAFAEAF639765965FAF4EAF65974AEFB8
:1018300052E067965FAF4EAF679742E053E069961C
:101840005FAF4EAF69976B963FAF2EAF6B976D96BC
:101850003FAF2EAF6D974AE053E0A7965FAF4EAF14
:10186000A79742E153E0A9965FAF4EAFA997AB9619
:101870003FAF2EAFAB97AD963FAF2EAFAD97AF96C4
:101880003FAF2EAFAF97E1963FAF2EAFE1974AE162
:1018900053E0EB965FAF4EAFEB9742E253E0ED962D
:1018A0005FAF4EAFED974AE253E0EF965FAF4EAFBA
:1018B000EF9744E355E0C158DF4F59834883CF5732
:1018C000D040CF57DF4F39832883C158D040CD5700
:1018D000DF4F39832883C358D04042E353E0C357D6
:1018E000DF4F59834883CD58D0404AE353E0C15776
:1018F000DF4F59834883CF58D04042E453E0CF565E
:10190000DF4F59834883C159D0404AE453E0CD5654
:10191000DF4F59834883C359D040CB56DF4F3983BB
:101920002883C559D040C956DF4F39832883C7590A
:10193000D04042E553E0CF55DF4F59834883C15A29
:10194000D0404AE553E0CD55DF4F59834883C35A11
:10195000D040CB55DF4F39832883C55AD040C95575
:10196000DF4F39832883C75AD040C755DF4F3983AB
:101970002883C95AD040C555DF4F39832883CB5AB5
:10198000D04042E653E0CB54DF4F59834883C55BD8
:10199000D0404AE653E0C954DF4F59834883C75BC0
:1019A000D04042E753E0C754DF4F59834883C95BB7
:1019B000D0404AE753E0C554DF4F59834883CB5B9F
:1019C000D040C354DF4F39832883CD5BD040C1540E
:1019D000DF4F39832883CF5BD0409C01220F331F18
:1019E000880F991F880F991F880F991F820F931FC7
:1019F000860F971F880F991FE80FF91F0190F0813C
:101A0000E02D8CE090E05C01A61AB70AA294B29493
:101A1000B0EFBB22BA24AB22BA2440814423C1F0E8
:101A20006F01BFEFCB1ADB0A80E9E82EF12C50E002
:101A300008E010E02FEF3FEFB501C7010E94DB0A7D
:101A4000ECE0EE0EF11CD6014D916D014111EFCF8E
:101A5000C853DF4F0FB6F894DEBF0FBECDBFDF9186
:101A6000CF911F910F91FF90EF90DF90CF90BF909B
:101A7000AF900895AF92BF92CF92DF92EF92FF9214
:101A80000F931F93CF93DF9300919C0510919D05B9
:101A90002FEF3FEF4DE450E060ED70E088E490E020
:101AA0000E94DB0AE0909C05F0909D0580E190E0AB
:101AB0000E9456746C01892B09F44EC080E3F60134
:101AC00080831182E601219634E5A32EB12C40E3F8
:101AD00050E0870120EE37E060ED70E0C5010E9424
:101AE000DB0AFCE0AF0EB11C49914111F1CFE0904F
:101AF0009C05F0909D05C6010E94EB7480E190E08A
:101B00000E9456746C01892B09F441C080E3F601F0
:101B100080831182E601219690E6A92EB12C40E344
:101B200050E0870120EE37E060ED70E0C5010E94D3
:101B3000DB0AFCE0AF0EB11C49914111F1CFC601A7
:101B4000DF91CF911F910F91FF90EF90DF90CF9099
:101B5000BF90AF900C94EB7423E8C22E23E0D22EFA
:101B6000C4E5D0E045E450E0870120EE37E060EDC9
:101B700070E0CE010E94DB0A2C96F60141916F01C4
:101B80004111F1CFE0909C05F0909D05B7CF83E81F
:101B9000C82E83E0D82EC0E6D0E045E450E08701AF
:101BA00020EE37E060ED70E0CE010E94DB0A2C965B
:101BB000F60141916F014111F1CFDF91CF911F915A
:101BC0000F91FF90EF90DF90CF90BF90AF9008956E
:101BD0002F923F924F925F926F927F928F929F923D
:101BE000AF92BF92CF92DF92EF92FF920F931F932B
:101BF000CF93DF93EC015B0129013A01480180E1B9
:101C000090E00E9456741C01892B09F440C14114D4
:101C100051046104710461F580E3D1018C93119644
:101C20001C9240E36101BFEFCB1ADB0A50E0870151
:101C30009401B501CE010E94DB0A2C96F601419178
:101C40006F014111F3CFC101DF91CF911F910F912E
:101C5000FF90EF90DF90CF90BF90AF909F908F90CC
:101C60007F906F905F904F903F902F900C94EB740B
:101C70008CE0D1011D928A95E9F7C301B20120E001
:101C80003AEC4AE95BE30E940274122F60E07AECBE
:101C90008AE99BE30E94F273461A570A680A790A96
:101CA000105DF1011083C301B20120E031EE45EF78
:101CB00055E00E940274E22F60E071EE85EF95E03E
:101CC0000E94F273461A570A680A790AE05DD10148
:101CD0001196EC93C301B20120E836E948E950E0DF
:101CE0000E940274E22F60E876E988E990E00E94A1
:101CF000F273461A570A680A790AE05DD101129612
:101D0000EC93C301B20120E432E44FE050E00E94C2
:101D10000274E22F60E472E48FE090E00E94F273BC
:101D2000461A570A680A790AE05DD1011396EC93C6
:101D3000C301B20120EA36E841E050E00E9402749B
:101D4000E22FA22FB32F20EA36E841E050E00E94B4
:101D50003F74461A570A680A790AE05DD101149661
:101D6000EC93C301B20120E137E240E050E00E9471
:101D70000274422FA22FB32F20E137E20E942D746C
:101D8000461A570A680A790A405DF1014583C30182
:101D9000B20128EE33E040E050E00E940274422F8E
:101DA000A22FB32F28EE33E00E942D74461A570A53
:101DB000680A790A405DD10116964C93C301B201BD
:101DC00024E630E040E050E00E940274422FA22F4F
:101DD000B32F24E630E00E942D74461A570A680A91
:101DE000790A405DF1014783C301B2012AE030E086
:101DF00040E050E00E940274C901205DD1011896B4
:101E00002C93092E000CAA0BBB0B880F991FAA1F3D
:101E1000BB1FAC01BD01440F551F661F771F440F48
:101E2000551F661F771F840F951FA61FB71FA3019D
:101E30009201281B390B4A0B5B0BDA01C901805D4B
:101E4000D10119968C93212F103309F047C0F1016D
:101E500080E090E030E20196319320812033D9F385
:101E60002223D1F1D1010196F101E80FF91F80E0A1
:101E700090E001962D9321912111FBCFF101E80F04
:101E8000F91F1082F10140814111CCCEDCCE83E8F4
:101E9000C82E83E0D82E45E450E087019401B501B7
:101EA000CE010E94DB0A2C96D6014D916D014111A5
:101EB000F3CFDF91CF911F910F91FF90EF90DF90C3
:101EC000CF90BF90AF909F908F907F906F905F90DA
:101ED0004F903F902F900895F101D3CF80E090E094
:101EE000BFCF2F923F924F925F926F927F928F92CD
:101EF0009F92AF92BF92CF92DF92EF92FF920F9399
:101F00001F93CF93DF93CDB7DEB72C970FB6F8941E
:101F1000DEBF0FBECDBF2A013B0169015801FA8225
:101F2000E9822EE030E0452B462B472B09F47DC09B
:101F30004901881A990A82949294F0EF9F2298247A
:101F40008F229824AEE6EA2EA5E0FA2E00E610E0F5
:101F500040E2180150E086012FEF3FEFB401C101CC
:101F60000E94DB0ABCE02B0E311CF70141917F017E
:101F70004111F0CF9501BB0C440B550BC301B201CD
:101F80000E94027429013A012B833C834D835E83B6
:101F900080E190E00E9456749C878B87892B09F41E
:101FA00009C2411451046104710409F078C080E34E
:101FB000AB85BC858C9311961C9240E3AB84BC84AA
:101FC000BFEFAB1ABB0A90E6E92EF12CC501AB843A
:101FD000BC843C0150E086012FEF3FEFB401C70104
:101FE0000E94DB0AECE0EE0EF11CD3014D913D01A5
:101FF0004111F0CFC5012C960FB6F894DEBF0FBE8D
:10200000CDBFDF91CF911F910F91FF90EF90DF90A7
:10201000CF90BF90AF909F908F907F906F905F9088
:102020004F903F902F900C94EB747901E81AF90AC5
:10203000E294F294B0EFFB22FE24EB22FE2409E8A6
:1020400013E080E6A82EB12C4DE2480150E0860155
:102050002FEF3FEFB701C5010E94DB0A2CE0A20E73
:10206000B11CD4014D914D014111F0CF2C960FB60A
:10207000F894DEBF0FBECDBFDF91CF911F910F91BE
:10208000FF90EF90DF90CF90BF90AF909F908F9098
:102090007F906F905F904F903F902F9008958CE0CD
:1020A000AB85BC851D928A95E9F7E981FA81EF2B12
:1020B00009F024C1C301B20120E03AEC4AE95BE334
:1020C0000E940274E22F60E07AEC8AE99BE30E94AE
:1020D000F273461A570A680A790AE05DAB85BC8537
:1020E000EC93C301B20120E031EE45EF55E00E94D0
:1020F0000274E22F60E071EE85EF95E00E94F273CA
:10210000461A570A680A790AE05DAB85BC851196C4
:10211000EC93C301B20120E836E948E950E00E949F
:102120000274E22F60E876E988E990E00E94F27399
:10213000461A570A680A790AE05DAB85BC85129693
:10214000EC93C301B20120E432E44FE050E00E947E
:102150000274E22F60E472E48FE090E00E94F27378
:10216000461A570A680A790A20E32E0FEB85FC8588
:102170002383C301B20120EA36E841E050E00E9427
:102180000274E22FA22FB32F20EA36E841E050E09C
:102190000E943F74461A570A680A790A20E32E0FF4
:1021A000AB85BC8514962C93C301B20120E137E2C4
:1021B00040E050E00E940274422FA22FB32F20E192
:1021C00037E20E942D74461A570A680A790A405D60
:1021D000EB85FC854583C301B20128EE33E040E086
:1021E00050E00E940274422FA22FB32F28EE33E05A
:1021F0000E942D74461A570A680A790A405DAB8519
:10220000BC8516964C93C301B20124E630E040E051
:1022100050E00E940274422FA22FB32F24E630E038
:102220000E942D74461A570A680A790A405DEB85A8
:10223000FC854783C301B2012AE030E040E050E072
:102240000E940274C901205DAB85BC8518962C9351
:10225000092E000CAA0BBB0B880F991FAA1FBB1FCE
:10226000AC01BD01440F551F661F771F440F551F5A
:10227000661F771F840F951FA61FB71FA30192012A
:10228000281B390B4A0B5B0BDA01C901805DAB855A
:10229000BC8519968C9319978C91803309F0A5C051
:1022A000FD0120E030E090E2AD012F5F3F4F9193C0
:1022B00080818033D1F35C874B87882309F492C0F7
:1022C000AB85BC852F5F3F4FFD01E20FF31F20E080
:1022D00030E0AD012F5F3F4F8D9381918111FACF97
:1022E0005C874B87FA01E20FF31F1082EB85FC85B8
:1022F0004081411163CE8B859C857DCE29E0222EC5
:10230000312CA12CB12C412C3AEC532E3AE9632EFE
:102310003BE3732E1AE0E12EF12C00E010E09886EA
:102320008F82DA86C98665018B809C80AD80BE80F5
:1023300004C0E1E02E1A3108B0F1C501B401A301D7
:1023400092010E940274E22FA22FB32FA3019201E7
:102350000E943F74861A970AA80AB90AD6011996EC
:10236000A219B3092B853C85A20FB31FE05DEC9346
:10237000C301B201A80197010E94027429013A0128
:1023800049815A8142155305A1F6CA015FEFC51A6A
:10239000D50AF601E81BF90BAB85BC85EA0FFB1FDC
:1023A000BEE2B187C6CF8F809884C984DA84AB85BA
:1023B000BC8572CF03E813E080E6E82EF12C45E4FB
:1023C000580150E086012FEF3FEFB401C7010E9492
:1023D000DB0ABCE0EB0EF11CF50141915F014111FC
:1023E000F0CF44CEEB85FC8580CF20E030E065CF98
:1023F0004F925F926F927F928F929F92AF92BF9215
:10240000CF92DF92EF92FF920F931F93CF93DF93C0
:102410002A018B01000F111F060F171F000F111F3C
:10242000000F111F000F111F0C511F4F5C0128E1FD
:10243000A20EB11C66246A9440EE742E6801EFEF80
:10244000CE1ADE0A7C01F2E0EF0EF11C4C01F6011F
:102450008491F801C491D0E0DC2FCC27C80FD11DA6
:1024600060E670E0C4010E94680A20E130E015C017
:1024700055BADD98DD9ADC9ADE9A45BADD98DD9A88
:10248000DC9ADE9A55BADD98DD9ADC9ADE9A45BA76
:10249000DD98DD9A2150310900F1CE01022E02C0F3
:1024A000959587950A94E2F7DC9ADE9A80FFE0CF53
:1024B00065BADD98DD9ADC9ADE9A75BADD98DD9A08
:1024C000DC9ADE9A65BADD98DD9ADC9ADE9A75BAF6
:1024D000DD98DD9A2150310900F72FEF821A920A18
:1024E0008E149F0409F0B3CFC4010E5F1F4F8A14EE
:1024F0009B0409F0A3CFDF91CF911F910F91FF9023
:10250000EF90DF90CF90BF90AF909F908F907F9093
:102510006F905F904F9008958F929F92AF92BF926D
:10252000EF92FF920F931F93CF93DF93603826E9CA
:10253000720728E98207910508F053C061157105FB
:102540008105910509F0B4C020E530E0FBE26CE2C2
:10255000EAE270E6DC98DE9AF5BBDD98DD9ADC9A5B
:10256000DE9A35BBDD98DD9ADC9ADE9A25BBDD98D4
:10257000DD9ADC98DE9A65BBDD98DD9ADC98DE9A00
:10258000E5BBDD98DD9ADC9ADE9A15BADD98DD9A16
:10259000DC9ADE9A75BBDD98DD9ADC98DE9A65BB25
:1025A000DD98DD9A8CE290E0DC9ADE9A55BBDD98EE
:1025B000DD9ADC9ADE9A45BBDD98DD9A0197A1F79A
:1025C0002F5F3F4F203481E0380721F6DF91CF9114
:1025D0001F910F91FF90EF90BF90AF909F908F90C1
:1025E0000895F7E0EF2EF12C8A014B015C018AE09F
:1025F00090E00E945674EC018AE0FE0111928A95E7
:10260000E9F7C501B40124E630E040E050E00E9463
:102610000274CA01B901232B242B252B09F04CC0CD
:1026200080E38883198260E3C701880F991FE80E51
:10263000F91EEE0CFF1CEE0CFF1C5E01FFEFAF1A43
:10264000BF0A70E0A801C7010E94F811F50161916D
:102650005F01F8E1EF0EF11C6111F3CF20EE3FEFC7
:1026600040E953E060E670E088E091E00E94540B9E
:102670008881882381F0DE01119620E030E0E0912E
:102680007401F0917501E20FF31F80832F5F3F4FBC
:102690008D918111F4CFCE01DF91CF911F910F91D8
:1026A000FF90EF90BF90AF909F908F900C94EB7441
:1026B000E8E0EE2EF12C98CF9E0141E050E00E9420
:1026C0009F0668816111B0CFC9CF8F929F92AF9260
:1026D000BF92CF92DF92EF92FF920F931F93CF930F
:1026E000DF93603826E9720728E98207910508F030
:1026F00055C0611571058105910509F0C6C020E539
:1027000030E0FBE26CE2EAE270E6DC98DE9AF5BBD0
:10271000DD98DD9ADC9ADE9A35BBDD98DD9ADC9A8D
:10272000DE9A25BBDD98DD9ADC98DE9A65BBDD98E4
:10273000DD9ADC98DE9AE5BBDD98DD9ADC9ADE9ABC
:1027400015BADD98DD9ADC9ADE9A75BBDD98DD9AC4
:10275000DC98DE9A65BBDD98DD9A8CE290E0DC9A2D
:10276000DE9A55BBDD98DD9ADC9ADE9A45BBDD9892
:10277000DD9A0197A1F72F5F3F4F203481E03807A2
:1027800021F6DF91CF911F910F91FF90EF90DF9095
:10279000CF90BF90AF909F908F900895F7E0EF2E6D
:1027A000F12C8A014B015C018AE090E00E94567492
:1027B000EC018AE0FE0111928A95E9F7C501B401A6
:1027C00024E630E040E050E00E940274CA01B90102
:1027D000232B242B252B09F05CC080E388831982EE
:1027E00060E36E01FFEFCF1ADF0AC701880F991F60
:1027F000E80EF91EEE0CFF1CEE0CFF1CA12CB12CF8
:10280000E0917401F0917501EA0DFB1D808186173E
:1028100029F070E0A801C7010E94F8112FEFA21A59
:10282000B20AF60161916F01F8E1EF0EF11C61113E
:10283000E7CF20EE3FEF40E953E060E670E088E04C
:1028400091E00E94540B8881882381F0DE0111966B
:1028500020E030E0E0917401F0917501E20FF31F88
:1028600080832F5F3F4F8D918111F4CFCE01DF9197
:10287000CF911F910F91FF90EF90DF90CF90BF907D
:10288000AF909F908F900C94EB74E8E0EE2EF12CBB
:1028900088CF9E0141E050E00E949F06688161114F
:1028A000A0CFC7CFDC9ADE9A95BBDD98DD9ADC9A83
:1028B000DE9A85BBDD98DD9A0895CF93DF93D82FFC
:1028C000C92F60E070E080E090E00E94680A80E438
:1028D00091E020EFDC9ADE9AC5BBDD98DD9ADC9AA8
:1028E000DE9AD5BBDD98DD9A2150A1F7019789F7D3
:1028F000DF91CF9108952F923F924F925F926F9206
:102900007F928F929F92AF92BF92CF92DF92EF927F
:10291000FF920F931F93CF93DF9300D000D0CDB7DA
:10292000DEB76C013B013C832B83CA01880F991FE2
:10293000840F951F880F991F880F991F880F991F63
:102940009C012C513F4F5901AC0144505F4F5A83B9
:1029500049834B815C81141615060CF049C04A016D
:1029600025015FEF451A550A8C0C9D1CF2018491DC
:10297000F5012490312C322C2224280E311CB30175
:10298000C6010E94680A20E130E0C101022E02C0A7
:10299000959587950A94E2F780FF4AC080E090E021
:1029A000DC9ADE9A15BBDD98DD9ADC9ADE9A05BBCF
:1029B000DD98DD9A01964B815C818417950781F73C
:1029C0002150310910F75FEFC51AD50AC814D90490
:1029D00069F682E0A80EB11C29813A81A216B306DD
:1029E00081F064014B815C81141615060CF4B7CF9D
:1029F000460182E0A80EB11C29813A81A216B306D5
:102A000081F70F900F900F900F90DF91CF911F9152
:102A10000F91FF90EF90DF90CF90BF90AF909F907D
:102A20008F907F906F905F904F903F902F90089580
:102A300080E090E0DC9ADE9AF5BADD98DD9ADC9AC7
:102A4000DE9AE5BADD98DD9A01964B815C818417A8
:102A5000950781F72150310908F097CFB4CF2F9215
:102A60003F924F925F926F927F928F929F92AF921E
:102A7000BF92CF92DF92EF92FF920F931F93CF936B
:102A8000DF933C012B01690158014701FA01808164
:102A90008823C9F01901220C331C220E331E220C8C
:102AA000331C220C331CEA012196482F50E074019C
:102AB00085019601B201C3010E947B14620C731C54
:102AC00089918111F2CFDF91CF911F910F91FF90EA
:102AD000EF90DF90CF90BF90AF909F908F907F90BE
:102AE0006F905F904F903F902F9008952F923F925C
:102AF0004F925F926F927F928F929F92AF92BF920E
:102B0000CF92DF92EF92FF920F931F93CF93DF93B9
:102B1000CDB7DEB72E970FB6F894DEBF0FBECDBF90
:102B200098878F837C836B8329013A014701DE827A
:102B3000CD82150180E190E00E9456749A838983CA
:102B4000892B09F4DAC1411451046104710409F0BC
:102B50004BC080E3A981BA818C9311961C9240E30B
:102B60005401AA0CBB1CA80CB91CAA0CBB1CAA0CB7
:102B7000BB1CC980DA80BFEFCB1ADB0A8F81988536
:102B8000D886CF824B805C806D807E806C0150E067
:102B9000710183019401B201C6010E947B14CA0C29
:102BA000DB1CEF81F8854191F887EF834111EFCF6E
:102BB00089819A812E960FB6F894DEBF0FBECDBFE5
:102BC000DF91CF911F910F91FF90EF90DF90CF9009
:102BD000BF90AF909F908F907F906F905F904F903D
:102BE0003F902F900C94EB748CE0A981BA811D92D8
:102BF0008A95E9F70115110509F027C1C301B20152
:102C000020E03AEC4AE95BE30E940274E22F60E0C4
:102C10007AEC8AE99BE30E94F273461A570A680A23
:102C2000790AE05DA981BA81EC93C301B20120E089
:102C300031EE45EF55E00E940274E22F60E071EE44
:102C400085EF95E00E94F273461A570A680A790ADE
:102C500080E38E0FE981FA818183C301B20120E80C
:102C600036E948E950E00E940274E22F60E876E914
:102C700088E990E00E94F273461A570A680A790AB6
:102C800080E38E0FA981BA8112968C93C301B201A1
:102C900020E432E44FE050E00E940274E22F60E44E
:102CA00072E48FE090E00E94F273461A570A680AB5
:102CB000790A80E38E0FE981FA818383C301B2012F
:102CC00020EA36E841E050E00E940274E22FA22F91
:102CD000B32F20EA36E841E050E00E943F74461AE4
:102CE000570A680A790A80E38E0FA981BA8114967F
:102CF0008C93C301B20120E137E240E050E00E9432
:102D00000274422FA22FB32F20E137E20E942D74CC
:102D1000461A570A680A790A405DE981FA814583B3
:102D2000C301B20128EE33E040E050E00E9402749B
:102D3000422FA22FB32F28EE33E00E942D74461AA3
:102D4000570A680A790A405DA981BA8116964C93A0
:102D5000C301B20124E630E040E050E00E9402747A
:102D6000422FA22FB32F24E630E00E942D74461A82
:102D7000570A680A790A405DE981FA814783C301ED
:102D8000B2012AE030E040E050E00E940274C90144
:102D9000205DA981BA8118962C93092E000CAA0BEC
:102DA000BB0B880F991FAA1FBB1FAC01BD01440FAD
:102DB000551F661F771F440F551F661F771F840F0F
:102DC000951FA61FB71FA3019201281B390B4A0BA1
:102DD0005B0BDA01C901805DA981BA8119968C93D8
:102DE00019978C91803309F0C9C0FD0120E030E0D3
:102DF00090E24F8158852F5F3F4F919380818033C0
:102E0000D1F358874F83882309F4BBC0A981BA81C5
:102E10002F5F3F4FAD01420F531F20E030E0FA011A
:102E20004F8158852F5F3F4F8D9381918111FACF4C
:102E300058874F83E981FA81E20FF31F1082E981FD
:102E4000FA81408141118CCEB3CE69E0A62EB12C1F
:102E500080E090E0C12C7AECD72E7AE9E72E7BE374
:102E6000F72E9E878D879A8689863C862B862980B9
:102E70003A8005C031E0A31AB10808F437C0C30195
:102E8000B201A70196010E940274922EA22FB32FC5
:102E9000A70196010E943F74461A570A680A790AE8
:102EA000ED85FE853996EA19FB09E20DF31D80E3F5
:102EB000890D8083C701B6012AE030E040E050E090
:102EC0000E94027469017A010A151B0599F6ED85C5
:102ED000FE853196FE87ED87E01BF10BE20DF31DB9
:102EE0002EE2218731E0A31AB10848F689849A843A
:102EF0002B843C84A981BA8174CF5701AA0CBB1CD6
:102F0000AE0CBF1CAA0CBB1CAA0CBB1C23E8C22E17
:102F100023E0D22E45E48F819885DA82C9824B80E6
:102F20005C806D807E806C0150E0710183019401B2
:102F3000B201C6010E947B14CA0CDB1CA981BA81B4
:102F40004D91BA83A9834111EFCF2E960FB6F89415
:102F5000DEBF0FBECDBFDF91CF911F910F91FF90CC
:102F6000EF90DF90CF90BF90AF909F908F907F9029
:102F70006F905F904F903F902F90089520E030E049
:102F800042CFE981FA815ACF9093870080938600DF
:102F900008959C01220F331F820F931F880F991FE2
:102FA000880F991F08952EE030E0A901481B590BA6
:102FB000CA0182959295907F9827807F98270895DF
:102FC0008F929F92AF92BF92CF92DF92EF92FF9239
:102FD0000F931F93CF93DF936038E6E97E07E8E90C
:102FE0008E07910508F055C06115710581059105A1
:102FF00009F0E4C040E550E0FBE26CE2EAE270E692
:10300000DC98DE9AF5BBDD98DD9ADC9ADE9A55BB3A
:10301000DD98DD9ADC9ADE9A45BBDD98DD9ADC9876
:10302000DE9A65BBDD98DD9ADC98DE9AE5BBDD981B
:10303000DD9ADC9ADE9A15BADD98DD9ADC9ADE9A82
:1030400075BBDD98DD9ADC98DE9A65BBDD98DD9A6C
:103050008CE290E0DC9ADE9A35BBDD98DD9ADC9A52
:10306000DE9A25BBDD98DD9A0197A1F74F5F5F4F90
:10307000403481E0580721F6DF91CF911F910F91E5
:10308000FF90EF90DF90CF90BF90AF909F908F9088
:103090000895C7E0D0E089016A014B015C018AE034
:1030A00090E00E9456747C018AE0F70111928A95A3
:1030B000E9F7C501B40124E630E040E050E00E94A9
:1030C0000274CA01B901232B242B252B09F079C0E6
:1030D00080E3F7018083118290E3CD2809F054C08A
:1030E0006701FFEFCF1ADF0A9E01220F331FC20FC5
:1030F000D31FCC0FDD1FCC0FDD1FA12CB12CE09115
:103100007401F0917501EA0DFB1D8081981731F073
:10311000692F70E0A801CE010E94F8118FEFA81A64
:10312000B80AF60191916F0168969111E8CF20EEEF
:103130003FEF40E953E060E670E088E091E00E94F4
:10314000540BF7018081882381F0D701119620E08C
:1031500030E0E0917401F0917501E20FF31F80837C
:103160002F5F3F4F8D918111F4CFC701DF91CF9138
:103170001F910F91FF90EF90DF90CF90BF90AF9095
:103180009F908F900C94EB749E01220F331FC20FFF
:10319000D31FCC0FDD1FCC0FDD1F6701FFEFCF1A50
:1031A000DF0A692F70E0A801CE010E94F811F60134
:1031B00091916F0168969111F4CFB9CFC8E0D0E03A
:1031C0006ACF970141E050E00E949F06F70190818D
:1031D000911183CFACCF2F923F924F925F926F921B
:1031E0007F928F929F92AF92BF92CF92DF92EF9297
:1031F000FF920F931F93CF93DF93CDB7DEB72C973A
:103200000FB6F894DEBF0FBECDBF49015A01380199
:10321000DA82C9822EE030E081149104A104B10465
:1032200009F47EC01901261A370A2294329440EF1D
:1032300034223224242232242C01440C551C480E02
:10324000591E440C551C440C551C7EE6C72E75E0D7
:10325000D72E40E25C824B8250E083012FEF3FEF9C
:10326000B1018B819C810E94DB0AEB81FC813C9641
:10327000FC83EB83D6014D916D014111EDCF970198
:10328000FF0C440B550BC501B4010E940274690187
:103290007A012B833C834D835E8380E190E00E9422
:1032A00056745C01892B09F4ECC1C114D104E1040A
:1032B000F10409F076C080E3D5018C9311961C923D
:1032C00040E37501BFEFEB1AFB0A50E083012FEFDB
:1032D0003FEFB101C2010E94DB0AECE04E0E511C2F
:1032E000D7014D917D014111F0CFC5012C960FB64C
:1032F000F894DEBF0FBECDBFDF91CF911F910F912C
:10330000FF90EF90DF90CF90BF90AF909F908F9005
:103310007F906F905F904F903F902F900C94EB7444
:103320007901E61AF70AE294F294E0EFFE22FE2415
:10333000EE22FE249C01220F331F2901480E591E44
:10334000440C551C440C551C09E813E04DE268017F
:1033500050E083012FEF3FEFB701C2010E94DB0A6B
:103360002CE0420E511CD6014D916D014111F0CF60
:103370002C960FB6F894DEBF0FBECDBFDF91CF9174
:103380001F910F91FF90EF90DF90CF90BF90AF9083
:103390009F908F907F906F905F904F903F902F9075
:1033A00008958CE0F50111928A95E9F729813A8117
:1033B000232B09F013C1C701B60120E03AEC4AE91A
:1033C0005BE30E940274E22F60E07AEC8AE99BE3FF
:1033D0000E94F273C61AD70AE80AF90AE05DD5011D
:1033E000EC93C701B60120E031EE45EF55E00E94B5
:1033F0000274E22F60E071EE85EF95E00E94F273B7
:10340000C61AD70AE80AF90AE05DD5011196EC93CD
:10341000C701B60120E836E948E950E00E9402748D
:10342000E22F60E876E988E990E00E94F273C61A1C
:10343000D70AE80AF90AE05DD5011296EC93C701B4
:10344000B60120E432E44FE050E00E940274E22F23
:1034500060E472E48FE090E00E94F273C61AD70A2B
:10346000E80AF90A20E32E0FF5012383C701B6010C
:1034700020EA36E841E050E00E940274E22FA22FD9
:10348000B32F20EA36E841E050E00E943F74C61AAC
:10349000D70AE80AF90A20E32E0FD50114962C93D7
:1034A000C701B60120E137E240E050E00E9402741B
:1034B000422FA22FB32F20E137E20E942D74C61AAB
:1034C000D70AE80AF90A20E3240FF5012583C7018A
:1034D000B60128EE33E040E050E00E940274422F33
:1034E000A22FB32F28EE33E00E942D74C61AD70AFC
:1034F000E80AF90A20E3240FD50116962C93C70198
:10350000B60124E630E040E050E00E940274422F11
:10351000A22FB32F24E630E00E942D74C61AD70ADA
:10352000E80AF90A20E3240FF5012783C701B60151
:103530002AE030E040E050E00E940274C901205DC2
:10354000D50118962C93092E000CAA0BBB0B880FE3
:10355000991FAA1FBB1FAC01BD01440F551F661F59
:10356000771F440F551F661F771F840F951FA61FD7
:10357000B71FA7019601281B390B4A0B5B0BDA0119
:10358000C901805DD50119968C93D5018C9180334A
:1035900009F08EC0F50120E030E090E22F5F3F4F50
:1035A000919380818033D1F3882309F47FC0D501C2
:1035B0002F5F3F4FF501E20FF31F20E030E02F5F58
:1035C0003F4F8D9381918111FACFF501E20FF31FE7
:1035D0001082F5014081411174CE87CE09E010E0E0
:1035E000812C912CC12C8AECD82E8AE9E82E8BE311
:1035F000F82E38862F825A8649867C866B864B80C9
:103600005C806D807E8029803A8003C00150110962
:1036100088F1C301B201A70196010E9402742983B7
:10362000D901A70196010E943F74461A570A680AF9
:10363000790AF4013996E01BF10BEA0DFB1D8A2F84
:10364000805D8083C701B6012AE030E040E050E0B1
:103650000E94027469017A0120163106B9F6BFEFA3
:103660008B1A9B0AF401E219F309EA0DFB1D2EE205
:103670002187CCCF2F80388449845A846B847C8402
:1036800084CF03E813E045E4780150E083012FEF95
:103690003FEFB101C2010E94DB0ABCE04B0E511C9E
:1036A000F70141917F014111F0CF62CEF50190CF3A
:1036B00020E030E079CF8F929F92AF92BF92CF926D
:1036C000DF92EF92FF920F931F93CF93DF93CDB7CB
:1036D000DEB768970FB6F894DEBF0FBECDBF2CE003
:1036E000ECE7F1E0DE011D9601900D922A95E1F7DD
:1036F0002CE0E8E8F1E0DE01119601900D922A95A8
:10370000E1F7A0909C05B0909D05880F991FE1E01E
:10371000F0E0EC0FFD1FE80FF91F8080918004841A
:10372000F585E02D40814423B1F06F018FEFC81A79
:10373000D80AE12CF12C50E08501940160E670E09C
:10374000C7010E94DB0AECE0EE0EF11CF60141918C
:103750006F014111F0CF68960FB6F894DEBF0FBE2F
:10376000CDBFDF91CF911F910F91FF90EF90DF9030
:10377000CF90BF90AF909F908F900895AF92BF92DF
:10378000CF92DF92EF92FF920F931F93CF93DF932D
:103790006C017B01C2EBD3E0A12CB12C46E550E0DB
:1037A000870128E136EC60ED70E0C5010E94DB0A7C
:1037B0008CE0A80EB11C49914111F1CFA6014F5BDD
:1037C0005F4F28E136EC60ED70E084E290E00E940B
:1037D000DB0ADF91CF911F910F91FF90EF90DF9067
:1037E000CF90BF90AF900895CF92DF92EF92FF926B
:1037F0000F931F93CF93DF937B0126EBC22E23E021
:10380000D22EC0E0D0E043E5892BC1F450E087011F
:103810002AE832E660E770E0CE010E94DB0A2C96CF
:10382000F60141916F014111F1CFDF91CF911F91CD
:103830000F91FF90EF90DF90CF90089550E08701B7
:103840002FEF3FEF60E770E0CE010E94DB0A2C967D
:10385000F60141916F014111F1CFE7CFCF92DF9295
:10386000EF92FF920F931F93CF93DF9382309105D6
:1038700009F47FC044F5009709F460C00197D1F4C2
:10388000C0909C05D0909D0531ECE32E33E0F32EE3
:10389000C0ECD0E046E550E086012FEF3FEF60ED51
:1038A00070E0CE010E94DB0A2C96F70141917F0166
:1038B0004111F1CFDF91CF911F910F91FF90EF90C8
:1038C000DF90CF90089583309105E9F0049791F748
:1038D000C0909C05D0909D0580EDE82E83E0F82EE9
:1038E000C0ECD0E042E450E086012FEF3FEF60ED06
:1038F00070E0CE010E94DB0A2C96F70141917F0116
:103900004111F1CFD7CFC0909C05D0909D059BEC85
:10391000E92E93E0F92EC0ECD0E042E450E08601BD
:103920002FEF3FEF60ED70E0CE010E94DB0A2C9696
:10393000F70141917F014111F1CFBCCFC0909C05AF
:10394000D0909D054CEBE42E43E0F42EC0ECD0E08B
:1039500043E550E086012FEF3FEF60ED70E0CE01D0
:103960000E94DB0A2C96F70141917F014111F1CFB2
:10397000A1CFC0909C05D0909D0526ECE22E23E0BF
:10398000F22EC0ECD0E046E550E086012FEF3FEF8D
:1039900060ED70E0CE010E94DB0A2C96F7014191A8
:1039A0007F014111F1CF86CFAF92BF92CF92DF92CC
:1039B000EF92FF920F931F93CF93DF9300D000D02D
:1039C000CDB7DEB724ED33E03A83298328ED33E029
:1039D0003C832B83880F991FFE01E80FF91F01809C
:1039E000F281E02D40814423C9F05B016F018FEF2C
:1039F000C81AD80A8CEFE82EF12C50E0850120EE91
:103A00003FEF60ED70E0C7010E94DB0AECE0EE0ED4
:103A1000F11CF60141916F014111EFCF0F900F9012
:103A20000F900F90DF91CF911F910F91FF90EF902A
:103A3000DF90CF90BF90AF9008954F925F926F92BA
:103A40007F928F929F92AF92BF92CF92DF92EF922E
:103A5000FF920F931F93CF93DF9300D000D0CDB789
:103A6000DEB77C0183E487B98FED9EE20197F1F721
:103A700000C00000369AAFEDBEE21197F1F700C02A
:103A8000000084B165B170E0762F6627680F711D64
:103A9000072E000C880B990B0E94D07220E030E0BA
:103AA00040EA50E40E94857320E030E040E85AE3A9
:103AB0000E94857320E030E040EA50E40E94857364
:103AC00020E030E040E251E40E9485732B013C018C
:103AD0000E94987269837A838B839C8320E030E014
:103AE0004CED52E4C301B2010E94217287FF8DC0E8
:103AF000A12C48EFB42E20E030E046E153E4C301AE
:103B0000B2010E948073181624F420EAA22E2CEF32
:103B1000B22E8AE090E00E9456744C018AE0F401D3
:103B200011928A95E9F780E7C82E85E0D82E9CEFA0
:103B3000692E712C40E250E0870120E030E060EB1C
:103B400070E0C3010E94DB0AFCE06F0E711CD6011D
:103B50004D916D014111EFCFE981FA812F01FF0FE6
:103B600066087708411451046104710409F052C0D9
:103B700080E3D4018C9311961C9240E36401BFEF63
:103B8000CB1ADB0A8CEF682E712C50E0870195016F
:103B900060EB70E0C3010E94DB0AECE06E0E711C6A
:103BA000D6014D916D014111F0CFF401019000203B
:103BB000E9F7CF018819990944969C01220F331F18
:103BC000820F931F8701950146E550E060EB70E09E
:103BD000880F991F880F991F0E94DB0AC4010F905C
:103BE0000F900F900F90DF91CF911F910F91FF9049
:103BF000EF90DF90CF90BF90AF909F908F907F908D
:103C00006F905F904F900C94EB74AA24AA9433E0C9
:103C1000B32E71CF8CE0D4011D928A95E9F7C301D0
:103C2000B20120E03AEC4AE95BE30E940274122FF1
:103C300060E07AEC8AE99BE30E94F273461A570A25
:103C4000680A790A105DF4011083C301B20120E013
:103C500031EE45EF55E00E940274E22F60E071EE14
:103C600085EF95E00E94F273461A570A680A790AAE
:103C7000E05DD4011196EC93C301B20120E836E96E
:103C800048E950E00E940274E22F60E876E988E992
:103C900090E00E94F273461A570A680A790AE05DBA
:103CA000D4011296EC93C301B20120E432E44FE058
:103CB00050E00E940274E22F60E472E48FE090E032
:103CC0000E94F273461A570A680A790AE05DD40125
:103CD0001396EC93C301B20120EA36E841E050E0CC
:103CE0000E940274E22FA22FB32F20EA36E841E0AF
:103CF00050E00E943F74461A570A680A790AE05D4C
:103D0000D4011496EC93C301B20120E137E240E004
:103D100050E00E940274422FA22FB32F20E137E21D
:103D20000E942D74461A570A680A790A405DF40108
:103D30004583C301B20128EE33E040E050E00E9429
:103D40000274422FA22FB32F28EE33E00E942D746D
:103D5000461A570A680A790A405DD40116964C93B0
:103D6000C301B20124E630E040E050E00E9402745A
:103D7000422FA22FB32F24E630E00E942D74461A62
:103D8000570A680A790A405DF4014783C301B2010A
:103D90002AE030E040E050E00E940274C901205D5A
:103DA000D40118962C9318972EE219962C93092E6D
:103DB000000CAA0BBB0B880F991FAA1FBB1FAC01DD
:103DC000BD01440F551F661F771F440F551F661F07
:103DD000771F840F951FA61FB71FA3019201281BF1
:103DE000390B4A0B5B0BDA01C901805DD4011A96CD
:103DF0008C93212F103301F5F40180E090E030E244
:103E00000196319320812033D9F32223C1F0D401CC
:103E10000196F401E80FF91F80E090E001962D93E0
:103E200021912111FBCFF401E80FF91F1082F40159
:103E300040814111A3CEB9CE80E090E0E6CFF401FD
:103E4000F5CF4F925F926F927F92AF92BF92CF92D7
:103E5000DF92EF92FF920F931F93CF93DF937C013A
:103E600082E487B98FED9EE20197F1F700C0000070
:103E7000369AEFEDFEE23197F1F700C0000084B111
:103E800065B170E0762F6627680F711D072E000C54
:103E9000880B990B0E94D0729B01AC0160E070E02E
:103EA00080E894E40E94267220E030E040E85FE37E
:103EB0000E94B4719B01AC0160E070E08AEF94E471
:103EC0000E94267220E030EC4BEC54E40E94B47166
:103ED00020E030E040E251E40E94857323EC35EFAE
:103EE0004CE851E40E9426720E9498722B013C011A
:103EF0005B0140E7C42E45E0D42ECCEFD0E040E299
:103F000050E087012FEF3FEF60EA70E0CE010E94A2
:103F1000DB0A2C96F60141916F014111F1CF8AE045
:103F200090E00E945674EC018AE0FE0111928A959D
:103F3000E9F7C2018C5291408C32914008F458C08C
:103F400028E5A21622E0B2060CF45AC1C12C88EF73
:103F5000D82E052C000C6608770841145104610422
:103F6000710409F04AC080E38883198240E33E016E
:103F70003FEF631A730A8CEFA82EB12C50E0870133
:103F8000960160EA70E0C5010E94DB0A4CE0A40ED5
:103F9000B11CF30141913F014111F0CFFE010190AD
:103FA0000020E9F7CF018C1B9D0B44969C01220F4A
:103FB000331F820F931F8701960140E850E060EAAB
:103FC00070E0880F991F880F991F0E94DB0ACE01AD
:103FD000DF91CF911F910F91FF90EF90DF90CF90E5
:103FE000BF90AF907F906F905F904F900C94EB7468
:103FF00090EEC92E97E0D92EACCF8CE0FE01119245
:104000008A95E9F7C301B20120E03AEC4AE95BE3A3
:104010000E940274122F60E07AEC8AE99BE30E940E
:10402000F273461A570A680A790A105D1883C301A9
:10403000B20120E031EE45EF55E00E940274E22F1C
:1040400060E071EE85EF95E00E94F273461A570A20
:10405000680A790AE05DE983C301B20120E836E924
:1040600048E950E00E940274E22F60E876E988E9AE
:1040700090E00E94F273461A570A680A790AE05DD6
:10408000EA83C301B20120E432E44FE050E00E9431
:104090000274E22F60E472E48FE090E00E94F27319
:1040A000461A570A680A790AE05DEB83C301B20138
:1040B00020EA36E841E050E00E940274E22FA22F8D
:1040C000B32F20EA36E841E050E00E943F74461AE0
:1040D000570A680A790AE05DEC83C301B20120E166
:1040E00037E240E050E00E940274422FA22FB32F2B
:1040F00020E137E20E942D74461A570A680A790AAD
:10410000405D4D83C301B20128EE33E040E050E052
:104110000E940274422FA22FB32F28EE33E00E9498
:104120002D74461A570A680A790A405D4E83C30106
:10413000B20124E630E040E050E00E940274422FD9
:10414000A22FB32F24E630E00E942D74461A570A9E
:10415000680A790A405D4F83C301B2012AE030E06A
:1041600040E050E00E940274C901205D28872EE2E1
:104170002987092E000CAA0BBB0B880F991FAA1FB9
:10418000BB1FAC01BD01440F551F661F771F440FB5
:10419000551F661F771F840F951FA61FB71FA3010A
:1041A0009201281B390B4A0B5B0BDA01C901805DB8
:1041B0008A87212F1033F9F4FE0180E090E030E28D
:1041C0000196319320812033D9F32223B9F0DE0107
:1041D0000196FE01E80FF91F80E090E001962D9313
:1041E00021912111FBCFFE01E80FF91F10824881B8
:1041F0004111BDCED3CE80E090E0E7CFFE01F6CFF7
:10420000CC24CA9423E0D22EA4CEAF92BF92CF92F8
:10421000DF92EF92FF920F931F93CF93DF93CDB76F
:10422000DEB728970FB6F894DEBF0FBECDBF5C0196
:104230002DEDC22E23E0D22E38E4E32EF12C41E402
:1042400050E008E010E020E134E860EB70E0C701E6
:104250000E94DB0A8CE0E80EF11CF60141916F012F
:104260004111EECF88E0E4E9F1E0DE011196019022
:104270000D928A95E1F7AA0CBB1CE1E0F0E0EC0F8F
:10428000FD1FEA0DFB1D0190F081E02D40814423CC
:10429000C9F06F018FEFC81AD80A88E4E82EF12C14
:1042A00050E008E010E020E034E060EA70E0C70190
:1042B0000E94DB0AECE0EE0EF11CF60141916F0169
:1042C0004111EECF28960FB6F894DEBF0FBECDBFDA
:1042D000DF91CF911F910F91FF90EF90DF90CF90E2
:1042E000BF90AF900895AF92BF92CF92DF92EF92BE
:1042F000FF920F931F93CF93DF93CDB7DEB728972D
:104300000FB6F894DEBF0FBECDBF5C019BEFC92E88
:1043100093E0D92EE12CF12C44E550E008E010E0C8
:1043200020E134E860EB70E0C7010E94DB0A8CE01A
:10433000E80EF11CF60141916F014111EECF88E0CA
:10434000ECE9F1E0DE01119601900D928A95E1F71A
:10435000AA0CBB1CE1E0F0E0EC0FFD1FEA0DFB1D19
:104360000190F081E02D40814423C1F06F018FEF77
:10437000C81AD80AE12CF12C50E008E010E020E047
:1043800038EF60EA70E0C7010E94DB0AECE0EE0E55
:10439000F11CF60141916F014111EECF28960FB645
:1043A000F894DEBF0FBECDBFDF91CF911F910F916B
:1043B000FF90EF90DF90CF90BF90AF900895EF9275
:1043C000FF920F931F93CF93DF9320E1E22E24E01F
:1043D000F22EC8E0D1E040E2892B71F550E000E018
:1043E00010E02AE832E660E370E0CE010E94DB0ACA
:1043F0002C96F70141917F014111F0CF85E1E82E24
:1044000084E0F82EC8E0D1E040E250E00AE812E68D
:1044100020EE37E060E270E0CE010E94DB0A2C96CD
:10442000F70141917F014111F0CFDF91CF911F91B1
:104430000F91FF90EF90089550E00AE812E620E017
:1044400038EF60E370E0CE010E94DB0A2C96F701A2
:1044500041917F014111F0CF95E1E92E94E0F92ED1
:10446000C8E0D1E040E250E000E010E02AE832E6A7
:1044700060E270E0CE010E94DB0A2C96F7014191C8
:104480007F014111F0CFDF91CF911F910F91FF90EC
:10449000EF900895CF92DF92EF92FF920F931F93C8
:1044A000CF93DF93C0909C05D0909D05892BF9F0A8
:1044B0008FE2E82E84E0F82EC0E0D0E040E550E046
:1044C00086012FEF3FEF60E270E0CE010E94DB0A31
:1044D0002C96F70141917F014111F1CFDF91CF91EE
:1044E0001F910F91FF90EF90DF90CF9008959AE188
:1044F000E92E94E0F92EC0E0D0E043E550E08601DB
:104500002FEF3FEF60E270E0CE010E94DB0A2C96B5
:10451000F70141917F014111F1CFE0CFCF92DF92BE
:10452000EF92FF920F931F93CF93DF93EB018C01D8
:10453000813F910514F000EF10E010161106A4F56C
:10454000DD24DA94CC24CA94E12CF12C6EE370E0E3
:10455000C7010E94680A8DE3E816F1040CF476C0E6
:1045600089E7E816F1040CF46AC081EAE816F10460
:104570000CF45EC040E098EFD12C28EFC22E28E06A
:1045800030E0DC9ADE9A95BBDD98DD9ADC9ADE9A03
:1045900045BBDD98DD9A2150310999F784E0E80E9A
:1045A000F11CE016F10694F2780117FD3DC08CEF86
:1045B000E82280919605909197059C01265031093B
:1045C000E216F3060CF56EE370E0C7010E94680A7C
:1045D00028E030E0DC9ADE9AD5BBDD98DD9ADC9AE3
:1045E000DE9AC5BBDD98DD9A2150310999F784E048
:1045F000E80EF11C80919605909197059C0126503C
:104600003109E216F306FCF28017910724F41093A7
:10461000970500939605DF91CF911F910F91FF9021
:10462000EF90DF90CF90089583E0E80EF11CBFCFAC
:1046300040EA9CEF30EAD32E5CEFC52EA0CF40EECF
:104640009FEF80EED82ECC24CA9499CF9C2D4D2D6F
:1046500096CF40E0EBE25CE27AE26EE3DC98DE9A31
:10466000E5BBDD98DD9ADC9ADE9A15BADD98DD9A15
:10467000DC9ADE9A45BBDD98DD9ADC98DE9A55BB64
:10468000DD98DD9ADC98DE9A75BBDD98DD9ADC9AC0
:10469000DE9A15BADD98DD9ADC9ADE9A65BBDD9864
:1046A000DD9ADC98DE9A55BBDD98DD9A28E030E093
:1046B000DC9ADE9A95BBDD98DD9ADC9ADE9A85BBA2
:1046C000DD98DD9A2150310999F74C5F403F31F672
:1046D00008950F931F93CF93DF9384E487B98FEDF1
:1046E0009EE20197F1F700C00000369A8FED9EE23E
:1046F0000197F1F700C0000084B125B130E0322FFE
:104700002227280F311D8CE692E0821B930B8C012F
:104710001595079515950795959587959595879581
:1047200095958795080F191F003F1105F4F4C0EF08
:10473000D0E06EE370E0CE010E94680A28E030E02D
:1047400040919D0590919C05DC9ADE9A45BBDD98D1
:10475000DD9ADC9ADE9A95BBDD98DD9A215031090D
:1047600089F72197C017D10721F710927B05109286
:104770007A051092970510929605DF91CF911F91BF
:104780000F9108950F931F93FC012081211144C0C4
:1047900020E030E0EBE24CE25AE2DC98DE9AE5BB46
:1047A000DD98DD9ADC9ADE9A35BBDD98DD9ADC9ADD
:1047B000DE9A25BBDD98DD9ADC98DE9A45BBDD9854
:1047C000DD9ADC98DE9A55BBDD98DD9ADC9ADE9A9C
:1047D00015BADD98DD9ADC9ADE9A15BADD98DD9A75
:1047E000DC98DE9A45BBDD98DD9A80E190E0DC9AAA
:1047F000DE9A75BBDD98DD9ADC9ADE9A65BBDD98A2
:10480000DD9A0197A1F72F5F3F4F2034F1E03F077A
:1048100021F61F910F9108958B01AC0128E136EC30
:1048200060E070E080E090E00E94540B1F910F91D7
:1048300008954F925F926F927F928F929F92AF9264
:10484000BF92CF92DF92EF92FF920F931F93CF937D
:10485000DF937C01019609F447C100919C051091FA
:104860009D052FEF3FEF4DE450E060ED70E088E4F0
:1048700090E00E94DB0ABAE0EB16F1040CF4D9C018
:10488000C0909C05D0909D0580E190E00E945674F8
:104890005C01892B09F463C28CE0F50111928A95C1
:1048A000E9F72701FF0C6608770880E3E5018993A3
:1048B000D50111968C93119712968C93129713969B
:1048C0008C93139714968C93C301B20120E137E2C5
:1048D00040E050E00E940274E22FA0E1B7E20E94A3
:1048E0003474461A570A680A790AE05DD5011596AC
:1048F000EC93C301B20128EE33E040E050E00E94A7
:104900000274422FA22FB32F28EE33E00E942D74A1
:10491000461A570A680A790A405DF5014683C301C1
:10492000B20124E630E040E050E00E940274422FE1
:10493000A22FB32F24E630E00E942D74461A570AA6
:10494000680A790A405DD50117964C93C301B201FC
:104950002AE030E040E050E00E940274C901205D8E
:10496000F5012087092E000CAA0BBB0B880F991F9D
:10497000AA1FBB1FAC01BD01440F551F661F771F47
:10498000440F551F661F771F840F951FA61FB71F63
:10499000A3019201281B390B4A0B5B0BDA01C901F9
:1049A000805D818720E030E090E22F5F3F4F919360
:1049B00080818033D1F3882309F40EC2D5012F5FA3
:1049C0003F4FF501E20FF31F20E030E02F5F3F4F34
:1049D0008D9381918111FACFF501E20FF31F1082BF
:1049E000D5014C91442391F084E5E82EF12C50E060
:1049F000860120EE37E060ED70E0C7010E94DB0A1F
:104A0000BCE0EB0EF11C49914111F1CFC501DF91E2
:104A1000CF911F910F91FF90EF90DF90CF90BF90BB
:104A2000AF909F908F907F906F905F904F900C947D
:104A3000EB74A0909C05B0909D0580E190E00E94F1
:104A400056744C01892B09F496C180E3F4018083EC
:104A500011826401FFEFCF1ADF0AC4E5D0E040E322
:104A600050E0850120EE37E060ED70E0CE010E945D
:104A7000DB0A2C96D6014D916D014111F1CFC0900A
:104A80009C05D0909D05C4010E94EB742701FF0C8A
:104A90006608770880E190E00E9456745C01892BDB
:104AA00009F483C1411451046104710409F047C041
:104AB00080E3D5018C9311961C9240E37501BFEF02
:104AC000EB1AFB0AC0E6D0E050E0860120EE37E0AA
:104AD00060ED70E0CE010E94DB0A2C96F701419157
:104AE0007F014111F1CF92CFC0909C05D0909D05E0
:104AF000AEE8EA2EA3E0FA2EC8E6D1E04DE250E09F
:104B0000860128E136EC60ED70E0CE010E94DB0A00
:104B10002C96D7014D917D014111F1CFDF91CF91BD
:104B20001F910F91FF90EF90DF90CF90BF90AF90CB
:104B30009F908F907F906F905F904F9008958CE042
:104B4000F50111928A95E9F7C301B20120E03AEC30
:104B50004AE95BE30E940274C22F60E07AEC8AE9C2
:104B60009BE30E94F273461A570A680A790AC05DED
:104B7000D501CC93C301B20120E031EE45EF55E001
:104B80000E940274E22F60E071EE85EF95E00E94D2
:104B9000F273461A570A680A790AE05DD501119640
:104BA000EC93C301B20120E836E948E950E00E94E5
:104BB0000274E22F60E876E988E990E00E94F273DF
:104BC000461A570A680A790AE05DD5011296EC93F5
:104BD000C301B20120E432E44FE050E00E940274CD
:104BE000E22F60E472E48FE090E00E94F273461AD4
:104BF000570A680A790AE05DD5011396EC93C30160
:104C0000B20120EA36E841E050E00E940274E22F4F
:104C1000A22FB32F20EA36E841E050E00E943F7413
:104C2000461A570A680A790AE05DD5011496EC9392
:104C3000C301B20120E137E240E050E00E9402747B
:104C4000422FA22FB32F20E137E20E942D74461A83
:104C5000570A680A790A405DF5014583C301B2012C
:104C600028EE33E040E050E00E940274422FA22F71
:104C7000B32F28EE33E00E942D74461A570A680AB3
:104C8000790A405DD50116964C93C301B20124E622
:104C900030E040E050E00E940274422FA22FB32F78
:104CA00024E630E00E942D74461A570A680A790AF1
:104CB000405DF5014783C301B2012AE030E040E0E6
:104CC00050E00E940274C901205DD50118962C9312
:104CD000092E000CAA0BBB0B880F991FAA1FBB1F24
:104CE000AC01BD01440F551F661F771F440F551FB0
:104CF000661F771F840F951FA61FB71FA301920180
:104D0000281B390B4A0B5B0BDA01C901805DD50109
:104D100019968C932C2FC03309F062C0F50180E006
:104D200090E030E20196319320812033D9F32223A1
:104D300009F454C0D5010196F501E80FF91F80E090
:104D400090E001962D9321912111FBCFF501E80F01
:104D5000F91F1082F50140814111B0CE57CE860176
:104D600020EE37E042E853E060ED70E084E590E04B
:104D70000E94540BD3CEC3E8D3E0F4E5CF2ED12C60
:104D800045E450E0850120EE37E060ED70E0C601BB
:104D90000E94DB0ABCE0CB0ED11C49914111F1CF3E
:104DA000C0909C05D0909D0571CE43E8E42E43E071
:104DB000F42EC0E6D0E045E450E0860120EE37E076
:104DC00060ED70E0CE010E94DB0A2C96D7014D9178
:104DD0007D014111F1CFA2CEF50101CEF501B9CF90
:104DE00080E090E0A4CF4F925F926F927F92AF925B
:104DF000BF92CF92DF92EF92FF920F931F93CF93C8
:104E0000DF9300D000D0CDB7DEB77A016115710510
:104E10008105910569F584E4C82E84E0D82E90E9D7
:104E2000A92EB12C90E2492F50E0870120EE37E007
:104E300060ED70E0C5010E94DB0AFCE0AF0EB11C22
:104E4000D6019D916D019111EECF0F900F900F90B3
:104E50000F90DF91CF911F910F91FF90EF90DF9016
:104E6000CF90BF90AF907F906F905F904F900895DC
:104E700024E630E040E050E00E94027429013A014B
:104E800080E190E00E9456745C01892B09F44DC1C9
:104E90004114510461047104A1F580E3D5018C93A0
:104EA00011961C9290E36501BFEFCB1ADB0A40E933
:104EB000642E712C492F50E0870120EE37E060ED21
:104EC00070E0C3010E94DB0AECE06E0E711CD6019B
:104ED0009D916D019111EECFC5010F900F900F9034
:104EE0000F90DF91CF911F910F91FF90EF90DF9086
:104EF000CF90BF90AF907F906F905F904F900C9449
:104F0000EB748CE0D5011D928A95E9F780E3F501F9
:104F100080838183C301B20120E836E948E950E08B
:104F20000E940274E22F60E876E988E990E00E942E
:104F3000F27393018201061B170B280B390B0983AF
:104F40001A832B833C83E05DD5011296EC93C90153
:104F5000B80120E432E44FE050E00E940274E22FF6
:104F600060E472E48FE090E00E94F27309811A819C
:104F70002B813C81061B170B280B390B09831A83E5
:104F80002B833C83E05DD5011396EC93C901B801F6
:104F900020EA36E841E050E00E940274E22FA22F9E
:104FA000B32F20EA36E841E050E00E943F740981C7
:104FB0001A812B813C81061B170B280B390B0983A7
:104FC0001A832B833C83E05DD5011496EC93C901D1
:104FD000B80120E137E240E050E00E940274422F25
:104FE000A22FB32F20E137E20E942D7409811A818C
:104FF0002B813C81061B170B280B390B09831A8365
:105000002B833C83405DD50115964C93C901B801B3
:1050100028EE33E040E050E00E940274422FA22FBD
:10502000B32F28EE33E00E942D7409811A812B8161
:105030003C81061B170B280B390B09831A832B8322
:105040003C83405DD50116964C93C901B80124E616
:1050500030E040E050E00E940274422FA22FB32FB4
:1050600024E630E00E942D7449805A806B807C8059
:10507000461A570A680A790A405DF5014783C30159
:10508000B2012AE030E040E050E00E940274C90121
:10509000205DD50118962C9318972EE219962C9323
:1050A000092E000CAA0BBB0B880F991FAA1FBB1F50
:1050B000AC01BD01440F551F661F771F440F551FDC
:1050C000661F771F840F951FA61FB71F93018201CC
:1050D000081B190B2A0B3B0BD901C801805DD501B8
:1050E0001A968C93F50120E030E090E22F5F3F4F5D
:1050F000919380818033D1F3882389F1D5012F5F8B
:105100003F4FF501E20FF31F20E030E02F5F3F4FEC
:105110008D9381918111FACFF501E20FF31F108277
:10512000F50190819111BFCED7CE23E8C22E23E0A6
:10513000D22E30E9A32EB12C45E450E0870120EEB9
:1051400037E060ED70E0C5010E94DB0ABCE0AB0E09
:10515000B11CF60141916F014111EFCF76CEF501FF
:10516000DECF2F923F924F925F926F927F928F92FB
:105170009F92AF92BF92CF92DF92EF92FF920F93E6
:105180001F93CF93DF9300D000D0CDB7DEB76B0174
:105190007C011A018901672B682B692B09F47DC1F9
:1051A0008CE0D9011D928A95E9F7452B09F022C1BF
:1051B000C701B60120E03AEC4AE95BE30E940274C1
:1051C000E22F60E07AEC8AE99BE30E94F273C61A50
:1051D000D70AE80AF90AE05DD801EC93C701B601E5
:1051E00020E031EE45EF55E00E940274E22F60E0CE
:1051F00071EE85EF95E00E94F273C61AD70AE80AAD
:10520000F90AE05DD8011196EC93C701B60120E8D8
:1052100036E948E950E00E940274E22F60E876E93E
:1052200088E990E00E94F273C61AD70AE80AF90AE0
:10523000E05DD8011296EC93C701B60120E432E498
:105240004FE050E00E940274E22F60E472E48FE0CD
:1052500090E00E94F273C61AD70AE80AF90AE05DE4
:10526000D8011396EC93C701B60120EA36E841E075
:1052700050E00E940274E22FA22FB32F20EA36E8FA
:1052800041E050E00E943F74C61AD70AE80AF90AC2
:10529000E05DD8011496EC93C701B60120E137E236
:1052A00040E050E00E940274422FA22FB32F20E171
:1052B00037E20E942D74C61AD70AE80AF90A405D3F
:1052C000F8014583C701B60128EE33E040E050E025
:1052D0000E940274422FA22FB32F28EE33E00E94C7
:1052E0002D74C61AD70AE80AF90A405DD801169645
:1052F0004C93C701B60124E630E040E050E00E9444
:105300000274422FA22FB32F24E630E00E942D74A6
:10531000C61AD70AE80AF90A405DF8014783C701AF
:10532000B6012AE030E040E050E00E940274C9017A
:10533000205DD80118962C93092E000CAA0BBB0BEC
:10534000880F991FAA1FBB1FAC01BD01440F551F39
:10535000661F771F440F551F661F771F840F951F09
:10536000A61FB71FA7019601281B390B4A0B5B0B21
:10537000DA01C901805DD80119968C93D8018C910E
:10538000803309F091C0F80120E030E090E22F5F17
:105390003F4F919380818033D1F3882309F487C0F4
:1053A000D8012F5F3F4FF801E20FF31F20E030E0FC
:1053B0002F5F3F4F8D9381918111FACFF801E20F5A
:1053C000F31F1082C9010F900F900F900F90DF9183
:1053D000CF911F910F91FF90EF90DF90CF90BF90F2
:1053E000AF909F908F907F906F905F904F903F9085
:1053F0002F90089529E030E080E090E0812C4AEC85
:10540000942E4AE9A42E4BE3B42E5AE0452E512C9B
:10541000612C712C3C832B833A8229821C0108C0A9
:10542000EB81FC813197FC83EB83319609F4A6CFA5
:10543000C701B601A50194010E940274E22FA22FB8
:10544000B32FA50194010E943F74C61AD70AE80A37
:10545000F90AD10119962B813C81A21BB30BA00F35
:10546000B11FE05DEC93C501B401A30192010E945C
:10547000027449015A0149815A818B819C814817E4
:10548000590771F69FEF291A390AF101E41BF50B50
:10549000E00FF11FAEE2A187C3CF80E3F901808363
:1054A000118281E090E08FCF20E030E076CFF801EC
:1054B00020E030E086CFCF92DF92EF92FF920F9301
:1054C0001F93CF93DF93EC016B017A01890186175B
:1054D0009707A4F5B701CE010E94680ADC9ADE9A0C
:1054E00015BBDD98DD9ADC9ADE9A05BBDD98DD9A66
:1054F000DC9ADE9A15BBDD98DD9ADC9ADE9A05BB54
:10550000DD98DD9AB701CE010E94680ADC9ADE9A26
:1055100015BBDD98DD9ADC9ADE9A05BBDD98DD9A35
:10552000DC9ADE9A15BBDD98DD9ADC9ADE9A05BB23
:10553000DD98DD9A2196CC15DD0561F6DF91CF91DE
:105540001F910F91FF90EF90DF90CF900895EF9211
:10555000FF920F931F93CF93DF9300D0CDB7DEB7A9
:105560007B018A0129833A830E94680A29813A8152
:10557000E016F10684F4DC9ADE9A35BBDD98DD9AFC
:10558000DC9ADE9A25BBDD98DD9A8FEFE81AF80ADF
:10559000E016F10681F70F900F90DF91CF911F91E8
:1055A0000F91FF90EF9008954F925F926F927F92CC
:1055B0008F929F92AF92BF92CF92DF92EF92FF9223
:1055C0000F931F93CF93DF934C017B016A01290155
:1055D00084179507ECF580EF90E03C01661A770A96
:1055E0005C01A21AB30AE401B301CE010E94680A69
:1055F000DC9ADE9A15BBDD98DD9ADC9ADE9A05BB53
:10560000DD98DD9ADC9ADE9A15BBDD98DD9ADC9A8E
:10561000DE9A05BBDD98DD9AB501CE010E94680ACD
:10562000DC9ADE9A15BBDD98DD9ADC9ADE9A05BB22
:10563000DD98DD9ADC9ADE9A15BBDD98DD9ADC9A5E
:10564000DE9A05BBDD98DD9A2196CC15DD0561F665
:10565000C0EFD0E0C419D509BE01C4010E94680A98
:10566000E414F5040CF05CC0C701DC9ADE9A15BBAB
:10567000DD98DD9ADC9ADE9A05BBDD98DD9A01960D
:105680008415950591F7BE01C40101960E94680A30
:10569000C701DC9ADE9A15BBDD98DD9ADC9ADE9AAA
:1056A00005BBDD98DD9A01968415950591F7BE013D
:1056B000C6010E94680AC701DC9ADE9A15BBDD9814
:1056C000DD9ADC9ADE9A05BBDD98DD9A0196841599
:1056D000950594F3BE01C60101960E94680ADC9A02
:1056E000DE9A15BBDD98DD9ADC9ADE9A05BBDD9863
:1056F000DD9A8FEFE81AF80AE414F50484F3DF91D9
:10570000CF911F910F91FF90EF90DF90CF90BF90BE
:10571000AF909F908F907F906F905F904F90089583
:10572000BE01C40101960E94680ABE01C6010E9422
:10573000680ABE01C6010196DF91CF911F910F91BA
:10574000FF90EF90DF90CF90BF90AF909F908F90A1
:105750007F906F905F904F900C94680A1092710048
:105760008CE08093700084E08093740008959C0125
:1057700084EA809374009091740097FFFCCF80ECD2
:105780008093730084E8809374009091740097FF75
:10579000FCCF80E48093730084E880937400909140
:1057A000740097FFFCCFC9019595879595958795CE
:1057B00095958795959587958093730084E8809358
:1057C00074009091740097FFFCCF22953295307F42
:1057D0003227207F32272093730084E8809374005F
:1057E0008091740087FFFCCF84E980937400089552
:1057F0001F93CF93DF93182F9B012E503F4F220F03
:10580000331FE199FECFE9012196692F6F70C9011D
:105810000E948B75E199FECF612FCE010E948B759E
:1058200060919C0570919D058BE494E0DF91CF9190
:105830001F910C94C2238F929F92AF92BF92CF92EE
:10584000DF92EF92FF920F931F93CF93DF938E50CF
:105850009F4F880F991FE199FECFEC0121960E947E
:105860008375A82EB12CBA2CAA24E199FECFCE01C3
:105870000E948375A80EB11C60919C0570919D05D6
:105880008DE594E00E94C22380E190E00E9456746E
:105890004C0165010B2C000CEE08FF08C114D1046B
:1058A000E104F10481F580E3D4018C9311961C92FC
:1058B000C0909C05D0909D0540E37401BFEFEB1AAA
:1058C000FB0AC0EFD0E050E0860120EE3FEF60E041
:1058D00070E0CE010E94DB0A2C96F70141917F0116
:1058E0004111F1CFC4010E94EB74C501DF91CF914A
:1058F0001F910F91FF90EF90DF90CF90BF90AF90EE
:105900009F908F9008958CE0D4011D928A95E9F7BD
:10591000C701B60120E03AEC4AE95BE30E94027459
:10592000C22F60E07AEC8AE99BE30E94F273C61A08
:10593000D70AE80AF90AC05DF401C083C701B601BD
:1059400020E031EE45EF55E00E940274E22F60E066
:1059500071EE85EF95E00E94F273C61AD70AE80A45
:10596000F90AE05DD4011196EC93C701B60120E875
:1059700036E948E950E00E940274E22F60E876E9D7
:1059800088E990E00E94F273C61AD70AE80AF90A79
:10599000E05DD4011296EC93C701B60120E432E435
:1059A0004FE050E00E940274E22F60E472E48FE066
:1059B00090E00E94F273C61AD70AE80AF90AE05D7D
:1059C000D4011396EC93C701B60120EA36E841E012
:1059D00050E00E940274E22FA22FB32F20EA36E893
:1059E00041E050E00E943F74C61AD70AE80AF90A5B
:1059F000E05DD4011496EC93C701B60120E137E2D3
:105A000040E050E00E940274422FA22FB32F20E109
:105A100037E20E942D74C61AD70AE80AF90A405DD7
:105A2000F4014583C701B60128EE33E040E050E0C1
:105A30000E940274422FA22FB32F28EE33E00E945F
:105A40002D74C61AD70AE80AF90A405DD4011696E1
:105A50004C93C701B60124E630E040E050E00E94DC
:105A60000274422FA22FB32F24E630E00E942D743F
:105A7000C61AD70AE80AF90A405DF4014783C7014C
:105A8000B6012AE030E040E050E00E940274C90113
:105A9000205DD40118962C93092E000CAA0BBB0B89
:105AA000880F991FAA1FBB1FAC01BD01440F551FD2
:105AB000661F771F440F551F661F771F840F951FA2
:105AC000A61FB71FA7019601281B390B4A0B5B0BBA
:105AD000DA01C901805DD40119968C932C2FC03353
